{
  "contractName": "Provenance",
  "abi": [
    {
      "inputs": [],
      "payable": false,
      "stateMutability": "nonpayable",
      "type": "constructor"
    },
    {
      "constant": false,
      "inputs": [
        {
          "internalType": "string",
          "name": "_name",
          "type": "string"
        },
        {
          "internalType": "uint256",
          "name": "_phoneNo",
          "type": "uint256"
        },
        {
          "internalType": "string",
          "name": "_cityState",
          "type": "string"
        },
        {
          "internalType": "string",
          "name": "_country",
          "type": "string"
        }
      ],
      "name": "addProducer",
      "outputs": [
        {
          "internalType": "bool",
          "name": "success",
          "type": "bool"
        }
      ],
      "payable": false,
      "stateMutability": "nonpayable",
      "type": "function"
    },
    {
      "constant": false,
      "inputs": [
        {
          "internalType": "address",
          "name": "_producer",
          "type": "address"
        }
      ],
      "name": "removeProducer",
      "outputs": [],
      "payable": false,
      "stateMutability": "nonpayable",
      "type": "function"
    },
    {
      "constant": true,
      "inputs": [
        {
          "internalType": "address",
          "name": "_producer",
          "type": "address"
        }
      ],
      "name": "findProducer",
      "outputs": [
        {
          "internalType": "string",
          "name": "",
          "type": "string"
        },
        {
          "internalType": "uint256",
          "name": "",
          "type": "uint256"
        },
        {
          "internalType": "string",
          "name": "",
          "type": "string"
        },
        {
          "internalType": "string",
          "name": "",
          "type": "string"
        },
        {
          "internalType": "bool",
          "name": "",
          "type": "bool"
        }
      ],
      "payable": false,
      "stateMutability": "view",
      "type": "function"
    },
    {
      "constant": true,
      "inputs": [],
      "name": "allProducers",
      "outputs": [
        {
          "internalType": "address[]",
          "name": "",
          "type": "address[]"
        }
      ],
      "payable": false,
      "stateMutability": "view",
      "type": "function"
    },
    {
      "constant": false,
      "inputs": [
        {
          "internalType": "address",
          "name": "_producer",
          "type": "address"
        }
      ],
      "name": "certifyProducer",
      "outputs": [
        {
          "internalType": "bool",
          "name": "success",
          "type": "bool"
        }
      ],
      "payable": false,
      "stateMutability": "nonpayable",
      "type": "function"
    },
    {
      "constant": false,
      "inputs": [
        {
          "internalType": "string",
          "name": "serialNo",
          "type": "string"
        },
        {
          "internalType": "string",
          "name": "name",
          "type": "string"
        },
        {
          "internalType": "uint256[]",
          "name": "_locationData",
          "type": "uint256[]"
        }
      ],
      "name": "addProduct",
      "outputs": [],
      "payable": false,
      "stateMutability": "nonpayable",
      "type": "function"
    },
    {
      "constant": false,
      "inputs": [
        {
          "internalType": "string",
          "name": "serialNo",
          "type": "string"
        }
      ],
      "name": "removeProduct",
      "outputs": [
        {
          "internalType": "bool",
          "name": "success",
          "type": "bool"
        }
      ],
      "payable": false,
      "stateMutability": "nonpayable",
      "type": "function"
    },
    {
      "constant": true,
      "inputs": [
        {
          "internalType": "string",
          "name": "serialNo",
          "type": "string"
        }
      ],
      "name": "findProduct",
      "outputs": [
        {
          "internalType": "address",
          "name": "",
          "type": "address"
        },
        {
          "internalType": "string",
          "name": "",
          "type": "string"
        },
        {
          "internalType": "string",
          "name": "",
          "type": "string"
        },
        {
          "internalType": "uint256[]",
          "name": "",
          "type": "uint256[]"
        },
        {
          "internalType": "uint256",
          "name": "",
          "type": "uint256"
        }
      ],
      "payable": false,
      "stateMutability": "view",
      "type": "function"
    },
    {
      "constant": true,
      "inputs": [],
      "name": "allProducts",
      "outputs": [
        {
          "internalType": "string[]",
          "name": "",
          "type": "string[]"
        }
      ],
      "payable": false,
      "stateMutability": "view",
      "type": "function"
    }
  ],
  "bytecode": "0x608060405234801561001057600080fd5b50336000806101000a81548173ffffffffffffffffffffffffffffffffffffffff021916908373ffffffffffffffffffffffffffffffffffffffff1602179055506122dd806100606000396000f3fe608060405234801561001057600080fd5b50600436106100935760003560e01c80639726dd19116100665780639726dd1914610120578063a5bfd7c914610150578063c7a69e0b14610180578063d09174db146101b4578063e2d5d322146101d057610093565b806332ff5bb4146100985780633f185b6c146100b657806353efc828146100d25780639129524114610102575b600080fd5b6100a0610204565b6040516100ad9190611efb565b60405180910390f35b6100d060048036036100cb9190810190611856565b610292565b005b6100ec60048036036100e79190810190611856565b610535565b6040516100f99190611f3f565b60405180910390f35b61010a610629565b6040516101179190611f1d565b60405180910390f35b61013a6004803603610135919081019061187f565b610712565b6040516101479190611f3f565b60405180910390f35b61016a60048036036101659190810190611957565b610928565b6040516101779190611f3f565b60405180910390f35b61019a60048036036101959190810190611856565b610be9565b6040516101ab959493929190611f5a565b60405180910390f35b6101ce60048036036101c991908101906118c0565b6110dc565b005b6101ea60048036036101e5919081019061187f565b611306565b6040516101fb959493929190611e93565b60405180910390f35b6060600380548060200260200160405190810160405280929190818152602001828054801561028857602002820191906000526020600020905b8160009054906101000a900473ffffffffffffffffffffffffffffffffffffffff1673ffffffffffffffffffffffffffffffffffffffff168152602001906001019080831161023e575b5050505050905090565b6000809054906101000a900473ffffffffffffffffffffffffffffffffffffffff1673ffffffffffffffffffffffffffffffffffffffff163373ffffffffffffffffffffffffffffffffffffffff1614610321576040517f08c379a000000000000000000000000000000000000000000000000000000000815260040161031890612002565b60405180910390fd5b600160008273ffffffffffffffffffffffffffffffffffffffff1673ffffffffffffffffffffffffffffffffffffffff168152602001908152602001600020600080820160006103719190611573565b60018201600090556002820160006103899190611573565b6003820160006103999190611573565b6004820160006101000a81549060ff0219169055505060008090505b600380549050811015610531578173ffffffffffffffffffffffffffffffffffffffff16600382815481106103e657fe5b9060005260206000200160009054906101000a900473ffffffffffffffffffffffffffffffffffffffff1673ffffffffffffffffffffffffffffffffffffffff1614156105245760008190505b6001600380549050038110156104e0576003600182018154811061045357fe5b9060005260206000200160009054906101000a900473ffffffffffffffffffffffffffffffffffffffff166003828154811061048b57fe5b9060005260206000200160006101000a81548173ffffffffffffffffffffffffffffffffffffffff021916908373ffffffffffffffffffffffffffffffffffffffff1602179055508080600101915050610433565b506003600160038054905003815481106104f657fe5b9060005260206000200160006101000a81549073ffffffffffffffffffffffffffffffffffffffff02191690555b80806001019150506103b5565b5050565b60008060009054906101000a900473ffffffffffffffffffffffffffffffffffffffff1673ffffffffffffffffffffffffffffffffffffffff163373ffffffffffffffffffffffffffffffffffffffff16146105c6576040517f08c379a00000000000000000000000000000000000000000000000000000000081526004016105bd90612002565b60405180910390fd5b60018060008473ffffffffffffffffffffffffffffffffffffffff1673ffffffffffffffffffffffffffffffffffffffff16815260200190815260200160002060040160006101000a81548160ff02191690831515021790555060019050919050565b60606004805480602002602001604051908101604052809291908181526020016000905b82821015610709578382906000526020600020018054600181600116156101000203166002900480601f0160208091040260200160405190810160405280929190818152602001828054600181600116156101000203166002900480156106f55780601f106106ca576101008083540402835291602001916106f5565b820191906000526020600020905b8154815290600101906020018083116106d857829003601f168201915b50505050508152602001906001019061064d565b50505050905090565b60008060009054906101000a900473ffffffffffffffffffffffffffffffffffffffff1673ffffffffffffffffffffffffffffffffffffffff163373ffffffffffffffffffffffffffffffffffffffff16146107a3576040517f08c379a000000000000000000000000000000000000000000000000000000000815260040161079a90612002565b60405180910390fd5b6002826040516107b39190611e7c565b9081526020016040518091039020600080820160006107d29190611573565b6001820160006107e29190611573565b6002820160006101000a81549073ffffffffffffffffffffffffffffffffffffffff021916905560038201600061081991906115bb565b6004820160009055505060008090505b60048054905081101561091e5782805190602001206004828154811061084b57fe5b906000526020600020016040516108629190611e65565b604051809103902014156109115760008190505b6001600480549050038110156108e4576004600182018154811061089657fe5b90600052602060002001600482815481106108ad57fe5b9060005260206000200190805460018160011615610100020316600290046108d69291906115dc565b508080600101915050610876565b506004600160048054905003815481106108fa57fe5b9060005260206000200160006109109190611573565b5b8080600101915050610829565b5060019050919050565b600080600160003373ffffffffffffffffffffffffffffffffffffffff1673ffffffffffffffffffffffffffffffffffffffff16815260200190815260200160002060000180546001816001161561010002031660029004905014801561099157506000855114155b6109d0576040517f08c379a00000000000000000000000000000000000000000000000000000000081526004016109c790611fe2565b60405180910390fd5b84600160003373ffffffffffffffffffffffffffffffffffffffff1673ffffffffffffffffffffffffffffffffffffffff1681526020019081526020016000206000019080519060200190610a26929190611663565b5083600160003373ffffffffffffffffffffffffffffffffffffffff1673ffffffffffffffffffffffffffffffffffffffff1681526020019081526020016000206001018190555082600160003373ffffffffffffffffffffffffffffffffffffffff1673ffffffffffffffffffffffffffffffffffffffff1681526020019081526020016000206002019080519060200190610ac4929190611663565b5081600160003373ffffffffffffffffffffffffffffffffffffffff1673ffffffffffffffffffffffffffffffffffffffff1681526020019081526020016000206003019080519060200190610b1b929190611663565b506000600160003373ffffffffffffffffffffffffffffffffffffffff1673ffffffffffffffffffffffffffffffffffffffff16815260200190815260200160002060040160006101000a81548160ff02191690831515021790555060033390806001815401808255809150509060018203906000526020600020016000909192909190916101000a81548173ffffffffffffffffffffffffffffffffffffffff021916908373ffffffffffffffffffffffffffffffffffffffff1602179055505060019050949350505050565b60606000606080600080600160008873ffffffffffffffffffffffffffffffffffffffff1673ffffffffffffffffffffffffffffffffffffffff1681526020019081526020016000206000018054600181600116156101000203166002900490501180610c9957506000600160008873ffffffffffffffffffffffffffffffffffffffff1673ffffffffffffffffffffffffffffffffffffffff1681526020019081526020016000206001015414155b80610cfb57506000600160008873ffffffffffffffffffffffffffffffffffffffff1673ffffffffffffffffffffffffffffffffffffffff16815260200190815260200160002060020180546001816001161561010002031660029004905014155b80610d5d57506000600160008873ffffffffffffffffffffffffffffffffffffffff1673ffffffffffffffffffffffffffffffffffffffff16815260200190815260200160002060030180546001816001161561010002031660029004905014155b610d9c576040517f08c379a0000000000000000000000000000000000000000000000000000000008152600401610d9390611fc2565b60405180910390fd5b600160008773ffffffffffffffffffffffffffffffffffffffff1673ffffffffffffffffffffffffffffffffffffffff168152602001908152602001600020600001600160008873ffffffffffffffffffffffffffffffffffffffff1673ffffffffffffffffffffffffffffffffffffffff16815260200190815260200160002060010154600160008973ffffffffffffffffffffffffffffffffffffffff1673ffffffffffffffffffffffffffffffffffffffff168152602001908152602001600020600201600160008a73ffffffffffffffffffffffffffffffffffffffff1673ffffffffffffffffffffffffffffffffffffffff168152602001908152602001600020600301600160008b73ffffffffffffffffffffffffffffffffffffffff1673ffffffffffffffffffffffffffffffffffffffff16815260200190815260200160002060040160009054906101000a900460ff16848054600181600116156101000203166002900480601f016020809104026020016040519081016040528092919081815260200182805460018160011615610100020316600290048015610f8a5780601f10610f5f57610100808354040283529160200191610f8a565b820191906000526020600020905b815481529060010190602001808311610f6d57829003601f168201915b50505050509450828054600181600116156101000203166002900480601f0160208091040260200160405190810160405280929190818152602001828054600181600116156101000203166002900480156110265780601f10610ffb57610100808354040283529160200191611026565b820191906000526020600020905b81548152906001019060200180831161100957829003601f168201915b50505050509250818054600181600116156101000203166002900480601f0160208091040260200160405190810160405280929190818152602001828054600181600116156101000203166002900480156110c25780601f10611097576101008083540402835291602001916110c2565b820191906000526020600020905b8154815290600101906020018083116110a557829003601f168201915b505050505091509450945094509450945091939590929450565b600073ffffffffffffffffffffffffffffffffffffffff166002846040516111049190611e7c565b908152602001604051809103902060020160009054906101000a900473ffffffffffffffffffffffffffffffffffffffff1673ffffffffffffffffffffffffffffffffffffffff1614801561115b57506000835114155b61119a576040517f08c379a000000000000000000000000000000000000000000000000000000000815260040161119190612022565b60405180910390fd5b826002846040516111ab9190611e7c565b908152602001604051809103902060000190805190602001906111cf929190611663565b50816002846040516111e19190611e7c565b90815260200160405180910390206001019080519060200190611205929190611663565b50336002846040516112179190611e7c565b908152602001604051809103902060020160006101000a81548173ffffffffffffffffffffffffffffffffffffffff021916908373ffffffffffffffffffffffffffffffffffffffff160217905550806002846040516112779190611e7c565b9081526020016040518091039020600301908051906020019061129b9291906116e3565b50426002846040516112ad9190611e7c565b90815260200160405180910390206004018190555060048390806001815401808255809150509060018203906000526020600020016000909192909190915090805190602001906112ff929190611663565b5050505050565b60006060806060600060028660405161131f9190611e7c565b908152602001604051809103902060020160009054906101000a900473ffffffffffffffffffffffffffffffffffffffff166002876040516113619190611e7c565b90815260200160405180910390206000016002886040516113829190611e7c565b90815260200160405180910390206001016002896040516113a39190611e7c565b908152602001604051809103902060030160028a6040516113c49190611e7c565b908152602001604051809103902060040154838054600181600116156101000203166002900480601f01602080910402602001604051908101604052809291908181526020018280546001816001161561010002031660029004801561146b5780601f106114405761010080835404028352916020019161146b565b820191906000526020600020905b81548152906001019060200180831161144e57829003601f168201915b50505050509350828054600181600116156101000203166002900480601f0160208091040260200160405190810160405280929190818152602001828054600181600116156101000203166002900480156115075780601f106114dc57610100808354040283529160200191611507565b820191906000526020600020905b8154815290600101906020018083116114ea57829003601f168201915b505050505092508180548060200260200160405190810160405280929190818152602001828054801561155957602002820191906000526020600020905b815481526020019060010190808311611545575b505050505091509450945094509450945091939590929450565b50805460018160011615610100020316600290046000825580601f1061159957506115b8565b601f0160209004906000526020600020908101906115b79190611730565b5b50565b50805460008255906000526020600020908101906115d99190611730565b50565b828054600181600116156101000203166002900490600052602060002090601f016020900481019282601f106116155780548555611652565b8280016001018555821561165257600052602060002091601f016020900482015b82811115611651578254825591600101919060010190611636565b5b50905061165f9190611730565b5090565b828054600181600116156101000203166002900490600052602060002090601f016020900481019282601f106116a457805160ff19168380011785556116d2565b828001600101855582156116d2579182015b828111156116d15782518255916020019190600101906116b6565b5b5090506116df9190611730565b5090565b82805482825590600052602060002090810192821561171f579160200282015b8281111561171e578251825591602001919060010190611703565b5b50905061172c9190611730565b5090565b61175291905b8082111561174e576000816000905550600101611736565b5090565b90565b6000813590506117648161226c565b92915050565b600082601f83011261177b57600080fd5b813561178e6117898261206f565b612042565b915081818352602084019350602081019050838560208402820111156117b357600080fd5b60005b838110156117e357816117c98882611841565b8452602084019350602083019250506001810190506117b6565b5050505092915050565b600082601f8301126117fe57600080fd5b813561181161180c82612097565b612042565b9150808252602083016020830185838301111561182d57600080fd5b611838838284612219565b50505092915050565b60008135905061185081612283565b92915050565b60006020828403121561186857600080fd5b600061187684828501611755565b91505092915050565b60006020828403121561189157600080fd5b600082013567ffffffffffffffff8111156118ab57600080fd5b6118b7848285016117ed565b91505092915050565b6000806000606084860312156118d557600080fd5b600084013567ffffffffffffffff8111156118ef57600080fd5b6118fb868287016117ed565b935050602084013567ffffffffffffffff81111561191857600080fd5b611924868287016117ed565b925050604084013567ffffffffffffffff81111561194157600080fd5b61194d8682870161176a565b9150509250925092565b6000806000806080858703121561196d57600080fd5b600085013567ffffffffffffffff81111561198757600080fd5b611993878288016117ed565b94505060206119a487828801611841565b935050604085013567ffffffffffffffff8111156119c157600080fd5b6119cd878288016117ed565b925050606085013567ffffffffffffffff8111156119ea57600080fd5b6119f6878288016117ed565b91505092959194509250565b6000611a0e8383611a46565b60208301905092915050565b6000611a268383611c9c565b905092915050565b6000611a3a8383611e47565b60208301905092915050565b611a4f816121d1565b82525050565b611a5e816121d1565b82525050565b6000611a6f82612108565b611a798185612166565b9350611a84836120c3565b8060005b83811015611ab5578151611a9c8882611a02565b9750611aa78361213f565b925050600181019050611a88565b5085935050505092915050565b6000611acd82612113565b611ad78185612177565b935083602082028501611ae9856120d3565b8060005b85811015611b255784840389528151611b068582611a1a565b9450611b118361214c565b925060208a01995050600181019050611aed565b50829750879550505050505092915050565b6000611b428261211e565b611b4c8185612188565b9350611b57836120e3565b8060005b83811015611b88578151611b6f8882611a2e565b9750611b7a83612159565b925050600181019050611b5b565b5085935050505092915050565b611b9e816121e3565b82525050565b600081546001811660008114611bc15760018114611be657611c2a565b607f6002830416611bd28187612199565b955060ff1983168652808601935050611c2a565b60028204611bf48187612199565b9550611bff856120f3565b60005b82811015611c2157815481890152600182019150602081019050611c02565b82880195505050505b505092915050565b6000611c3d82612134565b611c4781856121b5565b9350611c57818560208601612228565b611c608161225b565b840191505092915050565b6000611c7682612134565b611c8081856121c6565b9350611c90818560208601612228565b80840191505092915050565b6000611ca782612129565b611cb181856121a4565b9350611cc1818560208601612228565b611cca8161225b565b840191505092915050565b6000611ce26015836121b5565b91507f50726f647563657220646f656e277420657869737400000000000000000000006000830152602082019050919050565b6000611d226034836121b5565b91507f65697468657220656e74727920616c726561647920657869737473206f72206e60008301527f616d6520656e746572656420776173206e756c6c0000000000000000000000006020830152604082019050919050565b6000611d88600d836121b5565b91507f4e6f74207468652061646d696e000000000000000000000000000000000000006000830152602082019050919050565b6000611dc86045836121b5565b91507f6569746865722073657269616c206e756d62657220616c726561647920696e2060008301527f757365206f722073657269616c206e756d62657220656e74657265642077617360208301527f206e756c6c0000000000000000000000000000000000000000000000000000006040830152606082019050919050565b611e508161220f565b82525050565b611e5f8161220f565b82525050565b6000611e718284611ba4565b915081905092915050565b6000611e888284611c6b565b915081905092915050565b600060a082019050611ea86000830188611a55565b8181036020830152611eba8187611c32565b90508181036040830152611ece8186611c32565b90508181036060830152611ee28185611b37565b9050611ef16080830184611e56565b9695505050505050565b60006020820190508181036000830152611f158184611a64565b905092915050565b60006020820190508181036000830152611f378184611ac2565b905092915050565b6000602082019050611f546000830184611b95565b92915050565b600060a0820190508181036000830152611f748188611c32565b9050611f836020830187611e56565b8181036040830152611f958186611c32565b90508181036060830152611fa98185611c32565b9050611fb86080830184611b95565b9695505050505050565b60006020820190508181036000830152611fdb81611cd5565b9050919050565b60006020820190508181036000830152611ffb81611d15565b9050919050565b6000602082019050818103600083015261201b81611d7b565b9050919050565b6000602082019050818103600083015261203b81611dbb565b9050919050565b6000604051905081810181811067ffffffffffffffff8211171561206557600080fd5b8060405250919050565b600067ffffffffffffffff82111561208657600080fd5b602082029050602081019050919050565b600067ffffffffffffffff8211156120ae57600080fd5b601f19601f8301169050602081019050919050565b6000819050602082019050919050565b6000819050602082019050919050565b6000819050602082019050919050565b60008190508160005260206000209050919050565b600081519050919050565b600081519050919050565b600081519050919050565b600081519050919050565b600081519050919050565b6000602082019050919050565b6000602082019050919050565b6000602082019050919050565b600082825260208201905092915050565b600082825260208201905092915050565b600082825260208201905092915050565b600081905092915050565b600082825260208201905092915050565b600082825260208201905092915050565b600081905092915050565b60006121dc826121ef565b9050919050565b60008115159050919050565b600073ffffffffffffffffffffffffffffffffffffffff82169050919050565b6000819050919050565b82818337600083830152505050565b60005b8381101561224657808201518184015260208101905061222b565b83811115612255576000848401525b50505050565b6000601f19601f8301169050919050565b612275816121d1565b811461228057600080fd5b50565b61228c8161220f565b811461229757600080fd5b5056fea365627a7a72315820ab257b4bf4d84d74828aa63ca12b0a777cf6a3d48240b0b6f2b46369e204ccc76c6578706572696d656e74616cf564736f6c63430005100040",
  "source": "\npragma solidity >=0.4.22 <0.9.0;\npragma experimental ABIEncoderV2;\n\ncontract Provenance {\n    address admin;\n    mapping (address => Producer) producers;\n    mapping (string => Product) products;\n    address[] producersByAddress; // Array of all producers' acconts\n    string[] productsBySerialNo;\n\n    struct Producer {\n        string name;\n        uint phoneNo;\n        string cityState;\n        string country;\n        bool certified;\n    }\n    struct Product {\n        string serial;\n        string name;\n        address producer;\n        uint[] locationData; // array containing lat & long\n        uint timeStamp;\n    }\n    // constructor - runs once when contract is deployed\n    constructor() public {\n        admin = msg.sender;\n    }\n    // modifier to allow only admin to execute a function\n    modifier onlyAdmin() {\n        require(msg.sender == admin, \"Not the admin\");\n        _;\n    }\n    // function for producer to add their details to database\n    function addProducer(string memory _name, uint _phoneNo, string memory _cityState, string memory _country) public returns (bool success)  {\n        // don't overwrite existing entries and ensure name isn't null\n        require (bytes(producers[msg.sender].name).length == 0 && bytes(_name).length != 0,\n                 \"either entry already exists or name entered was null\"); \n        producers[msg.sender].name = _name;\n        producers[msg.sender].phoneNo = _phoneNo;\n        producers[msg.sender].cityState = _cityState;\n        producers[msg.sender].country = _country;\n        producers[msg.sender].certified = false; \n        producersByAddress.push(msg.sender);\n        return true;\n    }\n    // function to remove producer from database (can only be done by dmin)\n    function removeProducer(address _producer) onlyAdmin public {\n        delete producers [_producer];\n        // dlete entry from array and shorten array\n        for (uint i = 0; i < producersByAddress.length; i++) {\n            if (producersByAddress[i] == _producer) {\n                for (uint index = i; index < producersByAddress.length - 1; index++) {\n                    producersByAddress[index] =\n                    producersByAddress[index + 1];\n                }\n                delete producersByAddress[producersByAddress.length - 1];\n\n            }\n        }\n    }\n    // function to display details of producer\n    function findProducer(address _producer) public view returns (string memory, uint, string memory, string memory, bool) {\n        require(\n                bytes(producers[_producer].name).length > 0 || producers[_producer].phoneNo != 0 ||\n                bytes(producers[_producer].cityState).length != 0 || bytes(producers[_producer].country).length != 0,\n                \"Producer doen't exist\"\n                );\n        return (\n            producers[_producer].name, \n            producers[_producer].phoneNo, producers[_producer].cityState,\n            producers[_producer].country, producers[_producer].certified\n            );\n    }\n    // function to display all producers' accounts in database\n    function allProducers() public view returns (address[] memory) {\n        return producersByAddress;\n    }\n    // function to certify producer as legitimate (can only be done by admin)\n    function certifyProducer(address _producer) onlyAdmin public returns (bool success) {\n        producers [_producer] .certified = true;\n        return true;\n    }\n    // function for producer to add their product to database\n    function addProduct(string memory serialNo, string memory name, uint[] memory _locationData) public {\n        // ensure no duplicate serial numbers and serial number isn't null\n        require(products[serialNo].producer == address(0) && bytes(serialNo).length != 0, \n            \"either serial number already in use or serial number entered was null\");\n        products[serialNo].serial = serialNo;\n        products[serialNo].name = name;  \n        products [serialNo].producer = msg.sender;\n        products[serialNo].locationData = _locationData;\n        products[serialNo].timeStamp = block.timestamp;\n        productsBySerialNo.push(serialNo);\n    }\n    // function to remove product from database (can only be done by admin)\n    function removeProduct(string memory serialNo) onlyAdmin public returns (bool success) {\n        delete products [serialNo];\n        // delete entry from array and shorten array\n        for (uint i = 0; i < productsBySerialNo.length; i++) {\n            //keccak256(portcheck) == keccak256(\"signed\")\n            if (keccak256(bytes(productsBySerialNo[i])) == keccak256(bytes(serialNo))) {\n                for (uint index = i; index < productsBySerialNo.length - 1; index++) {\n                    productsBySerialNo[index] =\n                    productsBySerialNo[index + 1];\n                }\n                delete productsBySerialNo[productsBySerialNo.length - 1];\n                \n            }\n        }\n        return true;\n    }\n    // function to display details of product\n    function findProduct(string memory serialNo) public view returns (address, string memory, string memory, uint[] memory, uint) {\n        return (products[serialNo].producer, products[serialNo].serial, products[serialNo].name, products[serialNo].locationData, products[serialNo].timeStamp);\n    }\n    // function to displays all products\n    function allProducts() public view returns (string[] memory) {\n        return productsBySerialNo;\n    }\n}\n\n\n\n\n\n\n\n\n",
  "sourcePath": "/home/toor/projets/Blockchain/Blockchain_Supply_chain_management/contracts/Provenance.sol",
  "compiler": {
    "name": "solc",
    "version": "0.5.16+commit.9c3226ce.Emscripten.clang"
  },
  "schemaVersion": "3.4.6",
  "updatedAt": "2022-07-06T12:12:07.373Z",
  "devdoc": {
    "methods": {}
  },
  "userdoc": {
    "methods": {}
  }
}