{
  "contractName": "Provenance",
  "abi": [
    {
      "inputs": [],
      "payable": false,
      "stateMutability": "nonpayable",
      "type": "constructor"
    },
    {
      "constant": false,
      "inputs": [
        {
          "internalType": "string",
          "name": "_name",
          "type": "string"
        },
        {
          "internalType": "uint256",
          "name": "_phoneNo",
          "type": "uint256"
        },
        {
          "internalType": "string",
          "name": "_cityState",
          "type": "string"
        },
        {
          "internalType": "string",
          "name": "_country",
          "type": "string"
        }
      ],
      "name": "addProducer",
      "outputs": [
        {
          "internalType": "bool",
          "name": "success",
          "type": "bool"
        }
      ],
      "payable": false,
      "stateMutability": "nonpayable",
      "type": "function"
    },
    {
      "constant": false,
      "inputs": [
        {
          "internalType": "address",
          "name": "_producer",
          "type": "address"
        }
      ],
      "name": "removeProducer",
      "outputs": [],
      "payable": false,
      "stateMutability": "nonpayable",
      "type": "function"
    },
    {
      "constant": true,
      "inputs": [
        {
          "internalType": "address",
          "name": "_producer",
          "type": "address"
        }
      ],
      "name": "findProducer",
      "outputs": [
        {
          "internalType": "address",
          "name": "",
          "type": "address"
        },
        {
          "internalType": "string",
          "name": "",
          "type": "string"
        },
        {
          "internalType": "uint256",
          "name": "",
          "type": "uint256"
        },
        {
          "internalType": "string",
          "name": "",
          "type": "string"
        },
        {
          "internalType": "string",
          "name": "",
          "type": "string"
        },
        {
          "internalType": "bool",
          "name": "",
          "type": "bool"
        }
      ],
      "payable": false,
      "stateMutability": "view",
      "type": "function"
    },
    {
      "constant": true,
      "inputs": [],
      "name": "allProducers",
      "outputs": [
        {
          "internalType": "address[]",
          "name": "",
          "type": "address[]"
        }
      ],
      "payable": false,
      "stateMutability": "view",
      "type": "function"
    },
    {
      "constant": false,
      "inputs": [
        {
          "internalType": "address",
          "name": "_producer",
          "type": "address"
        }
      ],
      "name": "certifyProducer",
      "outputs": [
        {
          "internalType": "bool",
          "name": "success",
          "type": "bool"
        }
      ],
      "payable": false,
      "stateMutability": "nonpayable",
      "type": "function"
    },
    {
      "constant": false,
      "inputs": [
        {
          "internalType": "string",
          "name": "serialNo",
          "type": "string"
        },
        {
          "internalType": "string",
          "name": "name",
          "type": "string"
        },
        {
          "internalType": "string",
          "name": "url",
          "type": "string"
        },
        {
          "internalType": "string",
          "name": "prix",
          "type": "string"
        }
      ],
      "name": "addProduct",
      "outputs": [],
      "payable": false,
      "stateMutability": "nonpayable",
      "type": "function"
    },
    {
      "constant": false,
      "inputs": [
        {
          "internalType": "string",
          "name": "serialNo",
          "type": "string"
        }
      ],
      "name": "removeProduct",
      "outputs": [
        {
          "internalType": "bool",
          "name": "success",
          "type": "bool"
        }
      ],
      "payable": false,
      "stateMutability": "nonpayable",
      "type": "function"
    },
    {
      "constant": true,
      "inputs": [
        {
          "internalType": "string",
          "name": "serialNo",
          "type": "string"
        }
      ],
      "name": "findProduct",
      "outputs": [
        {
          "internalType": "address",
          "name": "",
          "type": "address"
        },
        {
          "internalType": "string",
          "name": "",
          "type": "string"
        },
        {
          "internalType": "string",
          "name": "",
          "type": "string"
        },
        {
          "internalType": "string",
          "name": "",
          "type": "string"
        },
        {
          "internalType": "string",
          "name": "",
          "type": "string"
        },
        {
          "internalType": "uint256",
          "name": "",
          "type": "uint256"
        }
      ],
      "payable": false,
      "stateMutability": "view",
      "type": "function"
    },
    {
      "constant": true,
      "inputs": [],
      "name": "allProducts",
      "outputs": [
        {
          "internalType": "string[]",
          "name": "",
          "type": "string[]"
        }
      ],
      "payable": false,
      "stateMutability": "view",
      "type": "function"
    }
  ],
  "bytecode": "0x608060405234801561001057600080fd5b50336000806101000a81548173ffffffffffffffffffffffffffffffffffffffff021916908373ffffffffffffffffffffffffffffffffffffffff1602179055506122ad806100606000396000f3fe608060405234801561001057600080fd5b50600436106100935760003560e01c80639726dd19116100665780639726dd1914610120578063a5bfd7c914610150578063c7a69e0b14610180578063e2d5d322146101b5578063fde74e81146101ea57610093565b806332ff5bb4146100985780633f185b6c146100b657806353efc828146100d25780639129524114610102575b600080fd5b6100a0610206565b6040516100ad9190611f94565b60405180910390f35b6100d060048036036100cb91908101906118bd565b610294565b005b6100ec60048036036100e791908101906118bd565b610537565b6040516100f99190611fd8565b60405180910390f35b61010a61062b565b6040516101179190611fb6565b60405180910390f35b61013a600480360361013591908101906118e6565b610714565b6040516101479190611fd8565b60405180910390f35b61016a600480360361016591908101906119ea565b61093a565b6040516101779190611fd8565b60405180910390f35b61019a600480360361019591908101906118bd565b610bfb565b6040516101ac96959493929190611f1e565b60405180910390f35b6101cf60048036036101ca91908101906118e6565b6110f3565b6040516101e196959493929190611ea1565b60405180910390f35b61020460048036036101ff9190810190611927565b61146a565b005b6060600380548060200260200160405190810160405280929190818152602001828054801561028a57602002820191906000526020600020905b8160009054906101000a900473ffffffffffffffffffffffffffffffffffffffff1673ffffffffffffffffffffffffffffffffffffffff1681526020019060010190808311610240575b5050505050905090565b6000809054906101000a900473ffffffffffffffffffffffffffffffffffffffff1673ffffffffffffffffffffffffffffffffffffffff163373ffffffffffffffffffffffffffffffffffffffff1614610323576040517f08c379a000000000000000000000000000000000000000000000000000000000815260040161031a90612033565b60405180910390fd5b600160008273ffffffffffffffffffffffffffffffffffffffff1673ffffffffffffffffffffffffffffffffffffffff1681526020019081526020016000206000808201600061037391906116cb565b600182016000905560028201600061038b91906116cb565b60038201600061039b91906116cb565b6004820160006101000a81549060ff0219169055505060008090505b600380549050811015610533578173ffffffffffffffffffffffffffffffffffffffff16600382815481106103e857fe5b9060005260206000200160009054906101000a900473ffffffffffffffffffffffffffffffffffffffff1673ffffffffffffffffffffffffffffffffffffffff1614156105265760008190505b6001600380549050038110156104e2576003600182018154811061045557fe5b9060005260206000200160009054906101000a900473ffffffffffffffffffffffffffffffffffffffff166003828154811061048d57fe5b9060005260206000200160006101000a81548173ffffffffffffffffffffffffffffffffffffffff021916908373ffffffffffffffffffffffffffffffffffffffff1602179055508080600101915050610435565b506003600160038054905003815481106104f857fe5b9060005260206000200160006101000a81549073ffffffffffffffffffffffffffffffffffffffff02191690555b80806001019150506103b7565b5050565b60008060009054906101000a900473ffffffffffffffffffffffffffffffffffffffff1673ffffffffffffffffffffffffffffffffffffffff163373ffffffffffffffffffffffffffffffffffffffff16146105c8576040517f08c379a00000000000000000000000000000000000000000000000000000000081526004016105bf90612033565b60405180910390fd5b60018060008473ffffffffffffffffffffffffffffffffffffffff1673ffffffffffffffffffffffffffffffffffffffff16815260200190815260200160002060040160006101000a81548160ff02191690831515021790555060019050919050565b60606004805480602002602001604051908101604052809291908181526020016000905b8282101561070b578382906000526020600020018054600181600116156101000203166002900480601f0160208091040260200160405190810160405280929190818152602001828054600181600116156101000203166002900480156106f75780601f106106cc576101008083540402835291602001916106f7565b820191906000526020600020905b8154815290600101906020018083116106da57829003601f168201915b50505050508152602001906001019061064f565b50505050905090565b60008060009054906101000a900473ffffffffffffffffffffffffffffffffffffffff1673ffffffffffffffffffffffffffffffffffffffff163373ffffffffffffffffffffffffffffffffffffffff16146107a5576040517f08c379a000000000000000000000000000000000000000000000000000000000815260040161079c90612033565b60405180910390fd5b6002826040516107b59190611e8a565b9081526020016040518091039020600080820160006107d491906116cb565b6001820160006107e491906116cb565b6002820160006107f491906116cb565b60038201600061080491906116cb565b6004820160006101000a81549073ffffffffffffffffffffffffffffffffffffffff02191690556005820160009055505060008090505b6004805490508110156109305782805190602001206004828154811061085d57fe5b906000526020600020016040516108749190611e73565b604051809103902014156109235760008190505b6001600480549050038110156108f657600460018201815481106108a857fe5b90600052602060002001600482815481106108bf57fe5b9060005260206000200190805460018160011615610100020316600290046108e8929190611713565b508080600101915050610888565b5060046001600480549050038154811061090c57fe5b90600052602060002001600061092291906116cb565b5b808060010191505061083b565b5060019050919050565b600080600160003373ffffffffffffffffffffffffffffffffffffffff1673ffffffffffffffffffffffffffffffffffffffff1681526020019081526020016000206000018054600181600116156101000203166002900490501480156109a357506000855114155b6109e2576040517f08c379a00000000000000000000000000000000000000000000000000000000081526004016109d990612013565b60405180910390fd5b84600160003373ffffffffffffffffffffffffffffffffffffffff1673ffffffffffffffffffffffffffffffffffffffff1681526020019081526020016000206000019080519060200190610a3892919061179a565b5083600160003373ffffffffffffffffffffffffffffffffffffffff1673ffffffffffffffffffffffffffffffffffffffff1681526020019081526020016000206001018190555082600160003373ffffffffffffffffffffffffffffffffffffffff1673ffffffffffffffffffffffffffffffffffffffff1681526020019081526020016000206002019080519060200190610ad692919061179a565b5081600160003373ffffffffffffffffffffffffffffffffffffffff1673ffffffffffffffffffffffffffffffffffffffff1681526020019081526020016000206003019080519060200190610b2d92919061179a565b506000600160003373ffffffffffffffffffffffffffffffffffffffff1673ffffffffffffffffffffffffffffffffffffffff16815260200190815260200160002060040160006101000a81548160ff02191690831515021790555060033390806001815401808255809150509060018203906000526020600020016000909192909190916101000a81548173ffffffffffffffffffffffffffffffffffffffff021916908373ffffffffffffffffffffffffffffffffffffffff1602179055505060019050949350505050565b600060606000606080600080600160008973ffffffffffffffffffffffffffffffffffffffff1673ffffffffffffffffffffffffffffffffffffffff1681526020019081526020016000206000018054600181600116156101000203166002900490501180610cad57506000600160008973ffffffffffffffffffffffffffffffffffffffff1673ffffffffffffffffffffffffffffffffffffffff1681526020019081526020016000206001015414155b80610d0f57506000600160008973ffffffffffffffffffffffffffffffffffffffff1673ffffffffffffffffffffffffffffffffffffffff16815260200190815260200160002060020180546001816001161561010002031660029004905014155b80610d7157506000600160008973ffffffffffffffffffffffffffffffffffffffff1673ffffffffffffffffffffffffffffffffffffffff16815260200190815260200160002060030180546001816001161561010002031660029004905014155b610db0576040517f08c379a0000000000000000000000000000000000000000000000000000000008152600401610da790611ff3565b60405180910390fd5b86600160008973ffffffffffffffffffffffffffffffffffffffff1673ffffffffffffffffffffffffffffffffffffffff168152602001908152602001600020600001600160008a73ffffffffffffffffffffffffffffffffffffffff1673ffffffffffffffffffffffffffffffffffffffff16815260200190815260200160002060010154600160008b73ffffffffffffffffffffffffffffffffffffffff1673ffffffffffffffffffffffffffffffffffffffff168152602001908152602001600020600201600160008c73ffffffffffffffffffffffffffffffffffffffff1673ffffffffffffffffffffffffffffffffffffffff168152602001908152602001600020600301600160008d73ffffffffffffffffffffffffffffffffffffffff1673ffffffffffffffffffffffffffffffffffffffff16815260200190815260200160002060040160009054906101000a900460ff16848054600181600116156101000203166002900480601f016020809104026020016040519081016040528092919081815260200182805460018160011615610100020316600290048015610f9f5780601f10610f7457610100808354040283529160200191610f9f565b820191906000526020600020905b815481529060010190602001808311610f8257829003601f168201915b50505050509450828054600181600116156101000203166002900480601f01602080910402602001604051908101604052809291908181526020018280546001816001161561010002031660029004801561103b5780601f106110105761010080835404028352916020019161103b565b820191906000526020600020905b81548152906001019060200180831161101e57829003601f168201915b50505050509250818054600181600116156101000203166002900480601f0160208091040260200160405190810160405280929190818152602001828054600181600116156101000203166002900480156110d75780601f106110ac576101008083540402835291602001916110d7565b820191906000526020600020905b8154815290600101906020018083116110ba57829003601f168201915b5050505050915095509550955095509550955091939550919395565b6000606080606080600060028760405161110d9190611e8a565b908152602001604051809103902060040160009054906101000a900473ffffffffffffffffffffffffffffffffffffffff1660028860405161114f9190611e8a565b90815260200160405180910390206000016002896040516111709190611e8a565b908152602001604051809103902060010160028a6040516111919190611e8a565b908152602001604051809103902060020160028b6040516111b29190611e8a565b908152602001604051809103902060030160028c6040516111d39190611e8a565b908152602001604051809103902060050154848054600181600116156101000203166002900480601f01602080910402602001604051908101604052809291908181526020018280546001816001161561010002031660029004801561127a5780601f1061124f5761010080835404028352916020019161127a565b820191906000526020600020905b81548152906001019060200180831161125d57829003601f168201915b50505050509450838054600181600116156101000203166002900480601f0160208091040260200160405190810160405280929190818152602001828054600181600116156101000203166002900480156113165780601f106112eb57610100808354040283529160200191611316565b820191906000526020600020905b8154815290600101906020018083116112f957829003601f168201915b50505050509350828054600181600116156101000203166002900480601f0160208091040260200160405190810160405280929190818152602001828054600181600116156101000203166002900480156113b25780601f10611387576101008083540402835291602001916113b2565b820191906000526020600020905b81548152906001019060200180831161139557829003601f168201915b50505050509250818054600181600116156101000203166002900480601f01602080910402602001604051908101604052809291908181526020018280546001816001161561010002031660029004801561144e5780601f106114235761010080835404028352916020019161144e565b820191906000526020600020905b81548152906001019060200180831161143157829003601f168201915b5050505050915095509550955095509550955091939550919395565b600073ffffffffffffffffffffffffffffffffffffffff166002856040516114929190611e8a565b908152602001604051809103902060040160009054906101000a900473ffffffffffffffffffffffffffffffffffffffff1673ffffffffffffffffffffffffffffffffffffffff161480156114e957506000845114155b611528576040517f08c379a000000000000000000000000000000000000000000000000000000000815260040161151f90612053565b60405180910390fd5b836002856040516115399190611e8a565b9081526020016040518091039020600001908051906020019061155d92919061179a565b508260028560405161156f9190611e8a565b9081526020016040518091039020600101908051906020019061159392919061179a565b50816002856040516115a59190611e8a565b908152602001604051809103902060020190805190602001906115c992919061179a565b50336002856040516115db9190611e8a565b908152602001604051809103902060040160006101000a81548173ffffffffffffffffffffffffffffffffffffffff021916908373ffffffffffffffffffffffffffffffffffffffff1602179055504260028560405161163b9190611e8a565b908152602001604051809103902060050181905550806002856040516116619190611e8a565b9081526020016040518091039020600301908051906020019061168592919061179a565b5060048490806001815401808255809150509060018203906000526020600020016000909192909190915090805190602001906116c392919061179a565b505050505050565b50805460018160011615610100020316600290046000825580601f106116f15750611710565b601f01602090049060005260206000209081019061170f919061181a565b5b50565b828054600181600116156101000203166002900490600052602060002090601f016020900481019282601f1061174c5780548555611789565b8280016001018555821561178957600052602060002091601f016020900482015b8281111561178857825482559160010191906001019061176d565b5b509050611796919061181a565b5090565b828054600181600116156101000203166002900490600052602060002090601f016020900481019282601f106117db57805160ff1916838001178555611809565b82800160010185558215611809579182015b828111156118085782518255916020019190600101906117ed565b5b509050611816919061181a565b5090565b61183c91905b80821115611838576000816000905550600101611820565b5090565b90565b60008135905061184e8161223c565b92915050565b600082601f83011261186557600080fd5b8135611878611873826120a0565b612073565b9150808252602083016020830185838301111561189457600080fd5b61189f8382846121e9565b50505092915050565b6000813590506118b781612253565b92915050565b6000602082840312156118cf57600080fd5b60006118dd8482850161183f565b91505092915050565b6000602082840312156118f857600080fd5b600082013567ffffffffffffffff81111561191257600080fd5b61191e84828501611854565b91505092915050565b6000806000806080858703121561193d57600080fd5b600085013567ffffffffffffffff81111561195757600080fd5b61196387828801611854565b945050602085013567ffffffffffffffff81111561198057600080fd5b61198c87828801611854565b935050604085013567ffffffffffffffff8111156119a957600080fd5b6119b587828801611854565b925050606085013567ffffffffffffffff8111156119d257600080fd5b6119de87828801611854565b91505092959194509250565b60008060008060808587031215611a0057600080fd5b600085013567ffffffffffffffff811115611a1a57600080fd5b611a2687828801611854565b9450506020611a37878288016118a8565b935050604085013567ffffffffffffffff811115611a5457600080fd5b611a6087828801611854565b925050606085013567ffffffffffffffff811115611a7d57600080fd5b611a8987828801611854565b91505092959194509250565b6000611aa18383611ac1565b60208301905092915050565b6000611ab98383611cb9565b905092915050565b611aca816121a1565b82525050565b611ad9816121a1565b82525050565b6000611aea82612101565b611af48185612147565b9350611aff836120cc565b8060005b83811015611b30578151611b178882611a95565b9750611b228361212d565b925050600181019050611b03565b5085935050505092915050565b6000611b488261210c565b611b528185612158565b935083602082028501611b64856120dc565b8060005b85811015611ba05784840389528151611b818582611aad565b9450611b8c8361213a565b925060208a01995050600181019050611b68565b50829750879550505050505092915050565b611bbb816121b3565b82525050565b600081546001811660008114611bde5760018114611c0357611c47565b607f6002830416611bef8187612169565b955060ff1983168652808601935050611c47565b60028204611c118187612169565b9550611c1c856120ec565b60005b82811015611c3e57815481890152600182019150602081019050611c1f565b82880195505050505b505092915050565b6000611c5a82612122565b611c648185612185565b9350611c748185602086016121f8565b611c7d8161222b565b840191505092915050565b6000611c9382612122565b611c9d8185612196565b9350611cad8185602086016121f8565b80840191505092915050565b6000611cc482612117565b611cce8185612174565b9350611cde8185602086016121f8565b611ce78161222b565b840191505092915050565b6000611cff601583612185565b91507f50726f647563657220646f656e277420657869737400000000000000000000006000830152602082019050919050565b6000611d3f603483612185565b91507f65697468657220656e74727920616c726561647920657869737473206f72206e60008301527f616d6520656e746572656420776173206e756c6c0000000000000000000000006020830152604082019050919050565b6000611da5600d83612185565b91507f4e6f74207468652061646d696e000000000000000000000000000000000000006000830152602082019050919050565b6000611de5604583612185565b91507f6569746865722073657269616c206e756d62657220616c726561647920696e2060008301527f757365206f722073657269616c206e756d62657220656e74657265642077617360208301527f206e756c6c0000000000000000000000000000000000000000000000000000006040830152606082019050919050565b611e6d816121df565b82525050565b6000611e7f8284611bc1565b915081905092915050565b6000611e968284611c88565b915081905092915050565b600060c082019050611eb66000830189611ad0565b8181036020830152611ec88188611c4f565b90508181036040830152611edc8187611c4f565b90508181036060830152611ef08186611c4f565b90508181036080830152611f048185611c4f565b9050611f1360a0830184611e64565b979650505050505050565b600060c082019050611f336000830189611ad0565b8181036020830152611f458188611c4f565b9050611f546040830187611e64565b8181036060830152611f668186611c4f565b90508181036080830152611f7a8185611c4f565b9050611f8960a0830184611bb2565b979650505050505050565b60006020820190508181036000830152611fae8184611adf565b905092915050565b60006020820190508181036000830152611fd08184611b3d565b905092915050565b6000602082019050611fed6000830184611bb2565b92915050565b6000602082019050818103600083015261200c81611cf2565b9050919050565b6000602082019050818103600083015261202c81611d32565b9050919050565b6000602082019050818103600083015261204c81611d98565b9050919050565b6000602082019050818103600083015261206c81611dd8565b9050919050565b6000604051905081810181811067ffffffffffffffff8211171561209657600080fd5b8060405250919050565b600067ffffffffffffffff8211156120b757600080fd5b601f19601f8301169050602081019050919050565b6000819050602082019050919050565b6000819050602082019050919050565b60008190508160005260206000209050919050565b600081519050919050565b600081519050919050565b600081519050919050565b600081519050919050565b6000602082019050919050565b6000602082019050919050565b600082825260208201905092915050565b600082825260208201905092915050565b600081905092915050565b600082825260208201905092915050565b600082825260208201905092915050565b600081905092915050565b60006121ac826121bf565b9050919050565b60008115159050919050565b600073ffffffffffffffffffffffffffffffffffffffff82169050919050565b6000819050919050565b82818337600083830152505050565b60005b838110156122165780820151818401526020810190506121fb565b83811115612225576000848401525b50505050565b6000601f19601f8301169050919050565b612245816121a1565b811461225057600080fd5b50565b61225c816121df565b811461226757600080fd5b5056fea365627a7a72315820c45e76f801dcb1b714f2c9352263ce63595f0d7563487f87c08ea396c8c2a2676c6578706572696d656e74616cf564736f6c63430005100040",
  "source": "\npragma solidity >=0.4.22 <0.9.0;\npragma experimental ABIEncoderV2;\n\ncontract Provenance {\n    address admin;\n    mapping (address => Producer) producers;\n    mapping (string => Product) products;\n    address[] producersByAddress; // Array of all producers' acconts\n    string[] productsBySerialNo;\n\n    struct Producer {\n        string name;\n        uint phoneNo;\n        string cityState;\n        string country;\n        bool certified;\n    }\n    struct Product {\n        string serial;\n        string name;\n        string url;\n        string prix;\n        address producer; // array containing lat & long\n        uint timeStamp;\n    }\n    // constructor - runs once when contract is deployed\n    constructor() public {\n        admin = msg.sender;\n    }\n    // modifier to allow only admin to execute a function\n    modifier onlyAdmin() {\n        require(msg.sender == admin, \"Not the admin\");\n        _;\n    }\n    // function for producer to add their details to database\n    function addProducer(string memory _name, uint _phoneNo, string memory _cityState, string memory _country) public returns (bool success)  {\n        // don't overwrite existing entries and ensure name isn't null\n        require (bytes(producers[msg.sender].name).length == 0 && bytes(_name).length != 0,\n                 \"either entry already exists or name entered was null\"); \n        producers[msg.sender].name = _name;\n        producers[msg.sender].phoneNo = _phoneNo;\n        producers[msg.sender].cityState = _cityState;\n        producers[msg.sender].country = _country;\n        producers[msg.sender].certified = false; \n        producersByAddress.push(msg.sender);\n        return true;\n    }\n    // function to remove producer from database (can only be done by dmin)\n    function removeProducer(address _producer) onlyAdmin public {\n        delete producers [_producer];\n        // dlete entry from array and shorten array\n        for (uint i = 0; i < producersByAddress.length; i++) {\n            if (producersByAddress[i] == _producer) {\n                for (uint index = i; index < producersByAddress.length - 1; index++) {\n                    producersByAddress[index] =\n                    producersByAddress[index + 1];\n                }\n                delete producersByAddress[producersByAddress.length - 1];\n\n            }\n        }\n    }\n    // function to display details of producer\n    function findProducer(address _producer) public view returns (address, string memory, uint, string memory, string memory, bool) {\n        require(\n                bytes(producers[_producer].name).length > 0 || producers[_producer].phoneNo != 0 ||\n                bytes(producers[_producer].cityState).length != 0 || bytes(producers[_producer].country).length != 0,\n                \"Producer doen't exist\"\n                );\n        return (\n            _producer,\n            producers[_producer].name, \n            producers[_producer].phoneNo, producers[_producer].cityState,\n            producers[_producer].country, producers[_producer].certified\n            );\n    }\n    // function to display all producers' accounts in database\n    function allProducers() public view returns (address[] memory) {\n        return producersByAddress;\n    }\n    // function to certify producer as legitimate (can only be done by admin)\n    function certifyProducer(address _producer) onlyAdmin public returns (bool success) {\n        producers [_producer] .certified = true;\n        return true;\n    }\n    // function for producer to add their product to database\n    function addProduct(string memory serialNo, string memory name, string memory url, string memory prix) public {\n        // ensure no duplicate serial numbers and serial number isn't null\n        require(products[serialNo].producer == address(0) && bytes(serialNo).length != 0, \n            \"either serial number already in use or serial number entered was null\");\n        products[serialNo].serial = serialNo;\n        products[serialNo].name = name;  \n        products[serialNo].url = url;\n        products[serialNo].producer = msg.sender;\n        products[serialNo].timeStamp = block.timestamp;\n        products[serialNo].prix = prix;\n        \n        productsBySerialNo.push(serialNo);\n    }\n    // function to remove product from database (can only be done by admin)\n    function removeProduct(string memory serialNo) onlyAdmin public returns (bool success) {\n        delete products [serialNo];\n        // delete entry from array and shorten array\n        for (uint i = 0; i < productsBySerialNo.length; i++) {\n            //keccak256(portcheck) == keccak256(\"signed\")\n            if (keccak256(bytes(productsBySerialNo[i])) == keccak256(bytes(serialNo))) {\n                for (uint index = i; index < productsBySerialNo.length - 1; index++) {\n                    productsBySerialNo[index] =\n                    productsBySerialNo[index + 1];\n                }\n                delete productsBySerialNo[productsBySerialNo.length - 1];\n                \n            }\n        }\n        return true;\n    }\n    // function to display details of product\n    function findProduct(string memory serialNo) public view returns (address, string memory, string memory, string memory, string memory, uint) {\n        return (products[serialNo].producer, products[serialNo].serial, products[serialNo].name, products[serialNo].url, products[serialNo].prix, products[serialNo].timeStamp);\n    }\n    // function to displays all products\n    function allProducts() public view returns (string[] memory) {\n        return productsBySerialNo;\n    }\n}\n\n\n\n\n\n\n\n\n",
  "sourcePath": "/home/toor/projets/Blockchain/Blockchain_Supply_chain_management/contracts/Provenance.sol",
  "compiler": {
    "name": "solc",
    "version": "0.5.16+commit.9c3226ce.Emscripten.clang"
  },
  "schemaVersion": "3.4.8",
  "updatedAt": "2022-07-14T08:18:15.624Z",
  "networkType": "ethereum",
  "devdoc": {
    "methods": {}
  },
  "userdoc": {
    "methods": {}
  }
}