{
  "contractName": "Reputation",
  "abi": [
    {
      "inputs": [],
      "payable": false,
      "stateMutability": "nonpayable",
      "type": "constructor"
    },
    {
      "constant": true,
      "inputs": [],
      "name": "track",
      "outputs": [
        {
          "internalType": "contract Tracking",
          "name": "",
          "type": "address"
        }
      ],
      "payable": false,
      "stateMutability": "view",
      "type": "function"
    },
    {
      "constant": false,
      "inputs": [
        {
          "internalType": "string",
          "name": "_name",
          "type": "string"
        },
        {
          "internalType": "uint256",
          "name": "_phoneNo",
          "type": "uint256"
        },
        {
          "internalType": "string",
          "name": "_cityState",
          "type": "string"
        },
        {
          "internalType": "string",
          "name": "_country",
          "type": "string"
        },
        {
          "internalType": "string",
          "name": "_goodsType",
          "type": "string"
        }
      ],
      "name": "addSupplier",
      "outputs": [
        {
          "internalType": "bool",
          "name": "success",
          "type": "bool"
        }
      ],
      "payable": false,
      "stateMutability": "nonpayable",
      "type": "function"
    },
    {
      "constant": false,
      "inputs": [
        {
          "internalType": "address",
          "name": "_supplier",
          "type": "address"
        }
      ],
      "name": "removeSupplier",
      "outputs": [
        {
          "internalType": "bool",
          "name": "success",
          "type": "bool"
        }
      ],
      "payable": false,
      "stateMutability": "nonpayable",
      "type": "function"
    },
    {
      "constant": true,
      "inputs": [
        {
          "internalType": "address",
          "name": "_supplier",
          "type": "address"
        }
      ],
      "name": "findSupplier",
      "outputs": [
        {
          "internalType": "string",
          "name": "",
          "type": "string"
        },
        {
          "internalType": "uint256",
          "name": "",
          "type": "uint256"
        },
        {
          "internalType": "string",
          "name": "",
          "type": "string"
        },
        {
          "internalType": "string",
          "name": "",
          "type": "string"
        },
        {
          "internalType": "string",
          "name": "",
          "type": "string"
        },
        {
          "internalType": "uint256",
          "name": "",
          "type": "uint256"
        }
      ],
      "payable": false,
      "stateMutability": "view",
      "type": "function"
    },
    {
      "constant": true,
      "inputs": [],
      "name": "allSuppliers",
      "outputs": [
        {
          "internalType": "address[]",
          "name": "",
          "type": "address[]"
        }
      ],
      "payable": false,
      "stateMutability": "view",
      "type": "function"
    },
    {
      "constant": true,
      "inputs": [
        {
          "internalType": "string",
          "name": "_goodsType",
          "type": "string"
        }
      ],
      "name": "filterByGoodsType",
      "outputs": [
        {
          "internalType": "address[]",
          "name": "",
          "type": "address[]"
        }
      ],
      "payable": false,
      "stateMutability": "view",
      "type": "function"
    },
    {
      "constant": true,
      "inputs": [
        {
          "internalType": "uint256",
          "name": "_reputation",
          "type": "uint256"
        }
      ],
      "name": "filterByReputation",
      "outputs": [
        {
          "internalType": "address[]",
          "name": "",
          "type": "address[]"
        }
      ],
      "payable": false,
      "stateMutability": "view",
      "type": "function"
    },
    {
      "constant": true,
      "inputs": [
        {
          "internalType": "address",
          "name": "_supplier",
          "type": "address"
        }
      ],
      "name": "checkReputation",
      "outputs": [
        {
          "internalType": "uint256",
          "name": "",
          "type": "uint256"
        }
      ],
      "payable": false,
      "stateMutability": "view",
      "type": "function"
    },
    {
      "constant": false,
      "inputs": [],
      "name": "updateReputations",
      "outputs": [
        {
          "internalType": "bool",
          "name": "success",
          "type": "bool"
        }
      ],
      "payable": false,
      "stateMutability": "nonpayable",
      "type": "function"
    }
  ],
  "bytecode": "0x6080604052732fdab21688169bdd6557fc75ac3561d0142e219f6000806101000a81548173ffffffffffffffffffffffffffffffffffffffff021916908373ffffffffffffffffffffffffffffffffffffffff16021790555034801561006457600080fd5b5033600160006101000a81548173ffffffffffffffffffffffffffffffffffffffff021916908373ffffffffffffffffffffffffffffffffffffffff160217905550611be9806100b56000396000f3fe608060405234801561001057600080fd5b50600436106100935760003560e01c80639d0ac07b116100665780639d0ac07b1461044d5780639f65cf0514610497578063b36c37df146104b9578063d69375c5146106c8578063f213af381461074b57610093565b8063014ab313146100985780630f5f817a146100f05780632ab9226d1461014c57806340b035a6146101ab575b600080fd5b6100da600480360360208110156100ae57600080fd5b81019080803573ffffffffffffffffffffffffffffffffffffffff16906020019092919050505061085b565b6040518082815260200191505060405180910390f35b6101326004803603602081101561010657600080fd5b81019080803573ffffffffffffffffffffffffffffffffffffffff16906020019092919050505061093d565b604051808215151515815260200191505060405180910390f35b610154610c20565b6040518080602001828103825283818151815260200191508051906020019060200280838360005b8381101561019757808201518184015260208101905061017c565b505050509050019250505060405180910390f35b610433600480360360a08110156101c157600080fd5b81019080803590602001906401000000008111156101de57600080fd5b8201836020820111156101f057600080fd5b8035906020019184600183028401116401000000008311171561021257600080fd5b91908080601f016020809104026020016040519081016040528093929190818152602001838380828437600081840152601f19601f820116905080830192505050505050509192919290803590602001909291908035906020019064010000000081111561027f57600080fd5b82018360208201111561029157600080fd5b803590602001918460018302840111640100000000831117156102b357600080fd5b91908080601f016020809104026020016040519081016040528093929190818152602001838380828437600081840152601f19601f8201169050808301925050505050505091929192908035906020019064010000000081111561031657600080fd5b82018360208201111561032857600080fd5b8035906020019184600183028401116401000000008311171561034a57600080fd5b91908080601f016020809104026020016040519081016040528093929190818152602001838380828437600081840152601f19601f820116905080830192505050505050509192919290803590602001906401000000008111156103ad57600080fd5b8201836020820111156103bf57600080fd5b803590602001918460018302840111640100000000831117156103e157600080fd5b91908080601f016020809104026020016040519081016040528093929190818152602001838380828437600081840152601f19601f820116905080830192505050505050509192919290505050610cae565b604051808215151515815260200191505060405180910390f35b6104556110a1565b604051808273ffffffffffffffffffffffffffffffffffffffff1673ffffffffffffffffffffffffffffffffffffffff16815260200191505060405180910390f35b61049f6110c6565b604051808215151515815260200191505060405180910390f35b6104fb600480360360208110156104cf57600080fd5b81019080803573ffffffffffffffffffffffffffffffffffffffff169060200190929190505050611340565b604051808060200187815260200180602001806020018060200186815260200185810385528b818151815260200191508051906020019080838360005b83811015610553578082015181840152602081019050610538565b50505050905090810190601f1680156105805780820380516001836020036101000a031916815260200191505b50858103845289818151815260200191508051906020019080838360005b838110156105b957808201518184015260208101905061059e565b50505050905090810190601f1680156105e65780820380516001836020036101000a031916815260200191505b50858103835288818151815260200191508051906020019080838360005b8381101561061f578082015181840152602081019050610604565b50505050905090810190601f16801561064c5780820380516001836020036101000a031916815260200191505b50858103825287818151815260200191508051906020019080838360005b8381101561068557808201518184015260208101905061066a565b50505050905090810190601f1680156106b25780820380516001836020036101000a031916815260200191505b509a505050505050505050505060405180910390f35b6106f4600480360360208110156106de57600080fd5b810190808035906020019092919050505061175e565b6040518080602001828103825283818151815260200191508051906020019060200280838360005b8381101561073757808201518184015260208101905061071c565b505050509050019250505060405180910390f35b6108046004803603602081101561076157600080fd5b810190808035906020019064010000000081111561077e57600080fd5b82018360208201111561079057600080fd5b803590602001918460018302840111640100000000831117156107b257600080fd5b91908080601f016020809104026020016040519081016040528093929190818152602001838380828437600081840152601f19601f8201169050808301925050505050505091929192905050506118c1565b6040518080602001828103825283818151815260200191508051906020019060200280838360005b8381101561084757808201518184015260208101905061082c565b505050509050019250505060405180910390f35b60008060009054906101000a900473ffffffffffffffffffffffffffffffffffffffff1673ffffffffffffffffffffffffffffffffffffffff166327c06fd5836040518263ffffffff1660e01b8152600401808273ffffffffffffffffffffffffffffffffffffffff1673ffffffffffffffffffffffffffffffffffffffff16815260200191505060206040518083038186803b1580156108fb57600080fd5b505afa15801561090f573d6000803e3d6000fd5b505050506040513d602081101561092557600080fd5b81019080805190602001909291905050509050919050565b6000600160009054906101000a900473ffffffffffffffffffffffffffffffffffffffff1673ffffffffffffffffffffffffffffffffffffffff163373ffffffffffffffffffffffffffffffffffffffff1614610a02576040517f08c379a000000000000000000000000000000000000000000000000000000000815260040180806020018281038252600d8152602001807f4e6f74207468652061646d696e0000000000000000000000000000000000000081525060200191505060405180910390fd5b600260008373ffffffffffffffffffffffffffffffffffffffff1673ffffffffffffffffffffffffffffffffffffffff16815260200190815260200160002060008082016000610a529190611a93565b6001820160009055600282016000610a6a9190611a93565b600382016000610a7a9190611a93565b600482016000610a8a9190611a93565b6005820160009055505060008090505b600380549050811015610c16578273ffffffffffffffffffffffffffffffffffffffff1660038281548110610acb57fe5b9060005260206000200160009054906101000a900473ffffffffffffffffffffffffffffffffffffffff1673ffffffffffffffffffffffffffffffffffffffff161415610c095760008190505b600160038054905003811015610bc55760036001820181548110610b3857fe5b9060005260206000200160009054906101000a900473ffffffffffffffffffffffffffffffffffffffff1660038281548110610b7057fe5b9060005260206000200160006101000a81548173ffffffffffffffffffffffffffffffffffffffff021916908373ffffffffffffffffffffffffffffffffffffffff1602179055508080600101915050610b18565b50600360016003805490500381548110610bdb57fe5b9060005260206000200160006101000a81549073ffffffffffffffffffffffffffffffffffffffff02191690555b8080600101915050610a9a565b5060019050919050565b60606003805480602002602001604051908101604052809291908181526020018280548015610ca457602002820191906000526020600020905b8160009054906101000a900473ffffffffffffffffffffffffffffffffffffffff1673ffffffffffffffffffffffffffffffffffffffff1681526020019060010190808311610c5a575b5050505050905090565b600080600260003373ffffffffffffffffffffffffffffffffffffffff1673ffffffffffffffffffffffffffffffffffffffff168152602001908152602001600020600001805460018160011615610100020316600290049050148015610d1757506000865114155b610d6c576040517f08c379a0000000000000000000000000000000000000000000000000000000008152600401808060200182810382526034815260200180611b816034913960400191505060405180910390fd5b85600260003373ffffffffffffffffffffffffffffffffffffffff1673ffffffffffffffffffffffffffffffffffffffff1681526020019081526020016000206000019080519060200190610dc2929190611adb565b5084600260003373ffffffffffffffffffffffffffffffffffffffff1673ffffffffffffffffffffffffffffffffffffffff1681526020019081526020016000206001018190555083600260003373ffffffffffffffffffffffffffffffffffffffff1673ffffffffffffffffffffffffffffffffffffffff1681526020019081526020016000206002019080519060200190610e60929190611adb565b5082600260003373ffffffffffffffffffffffffffffffffffffffff1673ffffffffffffffffffffffffffffffffffffffff1681526020019081526020016000206003019080519060200190610eb7929190611adb565b5081600260003373ffffffffffffffffffffffffffffffffffffffff1673ffffffffffffffffffffffffffffffffffffffff1681526020019081526020016000206004019080519060200190610f0e929190611adb565b506000809054906101000a900473ffffffffffffffffffffffffffffffffffffffff1673ffffffffffffffffffffffffffffffffffffffff166327c06fd5336040518263ffffffff1660e01b8152600401808273ffffffffffffffffffffffffffffffffffffffff1673ffffffffffffffffffffffffffffffffffffffff16815260200191505060206040518083038186803b158015610fad57600080fd5b505afa158015610fc1573d6000803e3d6000fd5b505050506040513d6020811015610fd757600080fd5b8101908080519060200190929190505050600260003373ffffffffffffffffffffffffffffffffffffffff1673ffffffffffffffffffffffffffffffffffffffff1681526020019081526020016000206005018190555060033390806001815401808255809150509060018203906000526020600020016000909192909190916101000a81548173ffffffffffffffffffffffffffffffffffffffff021916908373ffffffffffffffffffffffffffffffffffffffff160217905550506001905095945050505050565b6000809054906101000a900473ffffffffffffffffffffffffffffffffffffffff1681565b6000600160009054906101000a900473ffffffffffffffffffffffffffffffffffffffff1673ffffffffffffffffffffffffffffffffffffffff163373ffffffffffffffffffffffffffffffffffffffff161461118b576040517f08c379a000000000000000000000000000000000000000000000000000000000815260040180806020018281038252600d8152602001807f4e6f74207468652061646d696e0000000000000000000000000000000000000081525060200191505060405180910390fd5b60008090505b600380549050811015611338576000809054906101000a900473ffffffffffffffffffffffffffffffffffffffff1673ffffffffffffffffffffffffffffffffffffffff166327c06fd5600383815481106111e857fe5b9060005260206000200160009054906101000a900473ffffffffffffffffffffffffffffffffffffffff166040518263ffffffff1660e01b8152600401808273ffffffffffffffffffffffffffffffffffffffff1673ffffffffffffffffffffffffffffffffffffffff16815260200191505060206040518083038186803b15801561127357600080fd5b505afa158015611287573d6000803e3d6000fd5b505050506040513d602081101561129d57600080fd5b810190808051906020019092919050505060026000600384815481106112bf57fe5b9060005260206000200160009054906101000a900473ffffffffffffffffffffffffffffffffffffffff1673ffffffffffffffffffffffffffffffffffffffff1673ffffffffffffffffffffffffffffffffffffffff168152602001908152602001600020600501819055508080600101915050611191565b506001905090565b6060600060608060606000600260008873ffffffffffffffffffffffffffffffffffffffff1673ffffffffffffffffffffffffffffffffffffffff168152602001908152602001600020600001600260008973ffffffffffffffffffffffffffffffffffffffff1673ffffffffffffffffffffffffffffffffffffffff16815260200190815260200160002060010154600260008a73ffffffffffffffffffffffffffffffffffffffff1673ffffffffffffffffffffffffffffffffffffffff168152602001908152602001600020600201600260008b73ffffffffffffffffffffffffffffffffffffffff1673ffffffffffffffffffffffffffffffffffffffff168152602001908152602001600020600301600260008c73ffffffffffffffffffffffffffffffffffffffff1673ffffffffffffffffffffffffffffffffffffffff168152602001908152602001600020600401600260008d73ffffffffffffffffffffffffffffffffffffffff1673ffffffffffffffffffffffffffffffffffffffff16815260200190815260200160002060050154858054600181600116156101000203166002900480601f01602080910402602001604051908101604052809291908181526020018280546001816001161561010002031660029004801561156e5780601f106115435761010080835404028352916020019161156e565b820191906000526020600020905b81548152906001019060200180831161155157829003601f168201915b50505050509550838054600181600116156101000203166002900480601f01602080910402602001604051908101604052809291908181526020018280546001816001161561010002031660029004801561160a5780601f106115df5761010080835404028352916020019161160a565b820191906000526020600020905b8154815290600101906020018083116115ed57829003601f168201915b50505050509350828054600181600116156101000203166002900480601f0160208091040260200160405190810160405280929190818152602001828054600181600116156101000203166002900480156116a65780601f1061167b576101008083540402835291602001916116a6565b820191906000526020600020905b81548152906001019060200180831161168957829003601f168201915b50505050509250818054600181600116156101000203166002900480601f0160208091040260200160405190810160405280929190818152602001828054600181600116156101000203166002900480156117425780601f1061171757610100808354040283529160200191611742565b820191906000526020600020905b81548152906001019060200180831161172557829003601f168201915b5050505050915095509550955095509550955091939550919395565b6060806003805490506040519080825280602002602001820160405280156117955781602001602082028038833980820191505090505b50905060008090505b6003805490508110156118b7578360026000600384815481106117bd57fe5b9060005260206000200160009054906101000a900473ffffffffffffffffffffffffffffffffffffffff1673ffffffffffffffffffffffffffffffffffffffff1673ffffffffffffffffffffffffffffffffffffffff16815260200190815260200160002060050154106118aa576003818154811061183857fe5b9060005260206000200160009054906101000a900473ffffffffffffffffffffffffffffffffffffffff1682828151811061186f57fe5b602002602001019073ffffffffffffffffffffffffffffffffffffffff16908173ffffffffffffffffffffffffffffffffffffffff16815250505b808060010191505061179e565b5080915050919050565b6060806003805490506040519080825280602002602001820160405280156118f85781602001602082028038833980820191505090505b50905060008090505b600380549050811015611a89578380519060200120600260006003848154811061192757fe5b9060005260206000200160009054906101000a900473ffffffffffffffffffffffffffffffffffffffff1673ffffffffffffffffffffffffffffffffffffffff1673ffffffffffffffffffffffffffffffffffffffff16815260200190815260200160002060040160405180828054600181600116156101000203166002900480156119ea5780601f106119c85761010080835404028352918201916119ea565b820191906000526020600020905b8154815290600101906020018083116119d6575b505091505060405180910390201415611a7c5760038181548110611a0a57fe5b9060005260206000200160009054906101000a900473ffffffffffffffffffffffffffffffffffffffff16828281518110611a4157fe5b602002602001019073ffffffffffffffffffffffffffffffffffffffff16908173ffffffffffffffffffffffffffffffffffffffff16815250505b8080600101915050611901565b5080915050919050565b50805460018160011615610100020316600290046000825580601f10611ab95750611ad8565b601f016020900490600052602060002090810190611ad79190611b5b565b5b50565b828054600181600116156101000203166002900490600052602060002090601f016020900481019282601f10611b1c57805160ff1916838001178555611b4a565b82800160010185558215611b4a579182015b82811115611b49578251825591602001919060010190611b2e565b5b509050611b579190611b5b565b5090565b611b7d91905b80821115611b79576000816000905550600101611b61565b5090565b9056fe65697468657220656e74727920616c726561647920657869737473206f72206e616d6520656e746572656420776173206e756c6ca265627a7a7231582033bb53c2183ec4d5b2dccb4527665c994aedc10e36031e15e8b77b08d9a4510464736f6c63430005100032",
  "source": "\n\npragma solidity >=0.4.22 <0.9.0;\n\nimport \"./Tracking.sol\";\n\n// contract to store database of supply chain parties and their reputations\ncontract Reputation {\n    // call the Tracking contract at its deployed address\n    // need to include Tracking contract code at the end\n    Tracking public track = Tracking(0x2fDaB21688169bDd6557FC75AC3561d0142E219F);\n    address admin;\n    mapping (address => Supplier) suppliers;\n    address[] suppliersByAddress; // array of all suppliers' accounts\n    struct Supplier {\n        string name;\n        uint phoneNo;\n        string cityState;\n        string country;\n        string goodsType;\n        uint reputation;\n    }\n    // constructor - runs once when contract is deployed\n    constructor() public {\n        admin = msg.sender;\n    }\n    // modifier to allow only admin to execute a function\n    modifier onlyAdmin() {\n        require(msg.sender == admin, \"Not the admin\");\n        _;\n    }\n    // function for supplier to add their details to database\n    function addSupplier(string memory _name, uint _phoneNo, string memory _cityState, string memory _country, string memory _goodsType) public returns (bool success) {\n        // don't overwrite existing entries and ensure name isn't null\n        require (bytes(suppliers[msg.sender].name).length == 0 && bytes(_name).length != 0, \"either entry already exists or name entered was null\");\n        suppliers[msg.sender].name = _name;\n        suppliers[msg.sender].phoneNo = _phoneNo;\n        suppliers[msg.sender].cityState = _cityState;\n        suppliers[msg.sender].country = _country;\n        suppliers[msg.sender].goodsType = _goodsType;\n        suppliers [msg. sender] .reputation =\n        track.calculateReputation(msg.sender);\n        suppliersByAddress.push(msg.sender);\n        return true;   \n    }\n    // function to remove supplier from database (can only be done by admin)\n    function removeSupplier(address _supplier) onlyAdmin public returns (bool success) {\n        delete suppliers[_supplier];\n        // delete entry from array and shorten array\n        for (uint i = 0; i < suppliersByAddress.length; i++) {\n            if (suppliersByAddress[i] == _supplier) {\n                for (uint index = i; index < suppliersByAddress.length - 1; index++) {\n                    suppliersByAddress[index] =\n                    suppliersByAddress[index + 1];\n                }\n                delete suppliersByAddress[suppliersByAddress.length - 1];\n                \n            }\n        }\n        return true;\n    }\n    // function to display details of supplier\n    function findSupplier(address _supplier) public view returns (string memory, uint, string memory, string memory, string memory, uint) {\n        return (suppliers[_supplier].name,\n                suppliers [_supplier]. phoneNo, suppliers[_supplier].cityState,\n                suppliers [_supplier]. country, suppliers[_supplier].goodsType,\n                suppliers [_supplier]. reputation);\n    }\n    // function to display all suppliers' accounts in database\n    function allSuppliers() public view returns (address[] memory) {\n        return suppliersByAddress;\n    }\n    // function to search for suppliers by type of goods\n    function filterByGoodsType(string memory _goodsType) public view returns (address[] memory) {\n        address[] memory filteredGoods = new address [] (suppliersByAddress.length);\n        for (uint i = 0; i < suppliersByAddress.length; i++) {\n            if (keccak256(bytes(suppliers[suppliersByAddress[i]].goodsType)) ==keccak256(bytes(_goodsType))) {\n                filteredGoods[i] = suppliersByAddress[i];\n            }\n        }\n        return filteredGoods;\n    }\n    // function to search for suppliers by reputation (returns those with same or higher reputation)\n    function filterByReputation(uint _reputation) public view returns(address[] memory) {\n        address[] memory filteredRep = new address [] (suppliersByAddress. length);\n        for (uint i = 0; i < suppliersByAddress.length; i++) {\n            if (suppliers[suppliersByAddress[i]].reputation >= _reputation) {\n                filteredRep[i] = suppliersByAddress[i];\n            }\n        }\n        return filteredRep;\n    }\n    // function to display reputation of supplier (calls Tracking contract)\n    function checkReputation(address _supplier) public view returns (uint) {\n        return track.calculateReputation(_supplier);\n    }\n    // function to update reputations of all suppliers (calls Tracking contract)\n    // can only be done by admin\n    function updateReputations() onlyAdmin public returns (bool success) {\n        for (uint i = 0; i < suppliersByAddress.length; i++) {\n            suppliers[suppliersByAddress[i]].reputation = track.calculateReputation(suppliersByAddress[i]);\n        }\n        return true;\n    }\n}",
  "sourcePath": "/home/toor/projets/Blockchain/Blockchain_Supply_chain_management/contracts/Reputation.sol",
  "compiler": {
    "name": "solc",
    "version": "0.5.16+commit.9c3226ce.Emscripten.clang"
  },
  "schemaVersion": "3.4.8",
  "updatedAt": "2022-07-14T08:18:17.895Z",
  "networkType": "ethereum",
  "devdoc": {
    "methods": {}
  },
  "userdoc": {
    "methods": {}
  }
}